:020000042000DA
:100000000000012099020020F9020020FB020020DC
:10001000FD020020FF02002001030020000000007C
:1000200000000000000000000000000003030020AA
:100030000503002000000000070300200903002042
:100040000B0300200D0300200F03002011030020EC
:1000500013030020150300201703002019030020BC
:100060001B0300201D0300201F030020210300208C
:10007000230300202503002027030020290300205C
:100080002B0300202D0300202F030020310300202C
:1000900033030020350300203703002039030020FC
:1000A0003B030020000000000000000000000000F2
:1000B0000000000000000000000000003D030020E0
:1000C00021050020410300204303002045030020B8
:1000D00047030020490300204B0300204D0300206C
:1000E0004F0300205103002053030020550300203C
:1000F00057030020590300205B0300205D0300200C
:100100005F030020610300206303002065030020DB
:1001100067030020690300206B0300206D030020AB
:100120006F0300207103002073030020750300207B
:1001300077030020790300207B0300207D0300204B
:100140007F0300208103002083030020850300201B
:1001500087030020890300208B0300208D030020EB
:100160008F030020910300209303002095030020BB
:1001700097030020990300209B0300209D0300208B
:100180009F030020A1030020A3030020A50300205B
:10019000A7030020A9030020AB030020AD0300202B
:1001A000AF030020B1030020B3030020B5030020FB
:1001B000B7030020B9030020BB030020BD030020CB
:1001C000BF030020C1030020C3030020C50300209B
:1001D000C7030020C9030020CB030020CD0300206B
:1001E000CF030020D1030020D3030020D50300203B
:1001F000D7030020D9030020DB030020DD0300200B
:10020000DF030020E1030020E3030020E5030020DA
:10021000E7030020E9030020EB030020ED030020AA
:10022000EF030020F1030020F3030020F50300207A
:10023000F7030020F9030020FB030020FD0300204A
:10024000FF03002001040020030400200504002017
:1002500007040020090400200B0400200D040020E6
:100260000F040020110400201304002015040020B6
:1002700017040020190400201B0400201D04002086
:100280001F04002021040020230400202504002056
:10029000270400202904002064488047644800287F
:1002A0000BD164486449654A884206D091421CBF1C
:1002B00050F8043B41F8043BF8D161486149624A77
:1002C000884206D091421CBF50F8043B41F8043BE1
:1002D000F8D15E485E495F4A914218BF41F8040B6D
:1002E000FAD15D480FF2030E00474FF000004FF0C7
:1002F0000001DFF868F1FEE7FEE7FEE7FEE7FEE754
:10030000FEE7FEE7FEE7FEE7FEE7FEE7FEE7FEE7C5
:10031000FEE7FEE7FEE7FEE7FEE7FEE7FEE7FEE7B5
:10032000FEE7FEE7FEE7FEE7FEE7FEE7FEE7FEE7A5
:10033000FEE7FEE7FEE7FEE7FEE7FEE7FEE7FEE795
:10034000FEE7FEE7FEE7FEE7FEE7FEE7FEE7FEE785
:10035000FEE7FEE7FEE7FEE7FEE7FEE7FEE7FEE775
:10036000FEE7FEE7FEE7FEE7FEE7FEE7FEE7FEE765
:10037000FEE7FEE7FEE7FEE7FEE7FEE7FEE7FEE755
:10038000FEE7FEE7FEE7FEE7FEE7FEE7FEE7FEE745
:10039000FEE7FEE7FEE7FEE7FEE7FEE7FEE7FEE735
:1003A000FEE7FEE7FEE7FEE7FEE7FEE7FEE7FEE725
:1003B000FEE7FEE7FEE7FEE7FEE7FEE7FEE7FEE715
:1003C000FEE7FEE7FEE7FEE7FEE7FEE7FEE7FEE705
:1003D000FEE7FEE7FEE7FEE7FEE7FEE7FEE7FEE7F5
:1003E000FEE7FEE7FEE7FEE7FEE7FEE7FEE7FEE7E5
:1003F000FEE7FEE7FEE7FEE7FEE7FEE7FEE7FEE7D5
:10040000FEE7FEE7FEE7FEE7FEE7FEE7FEE7FEE7C4
:10041000FEE7FEE7FEE7FEE7FEE7FEE7FEE7FEE7B4
:10042000FEE7FEE7FEE7FEE7FEE700007D080020AE
:100430000000000000000020000000209C2200209E
:100440009C2200209C220020C427002000000000E5
:10045000C4270020302800203D160020B5050020CC
:1004600042F2C473C2F200031A780AB9012018706C
:10047000704700BF42F29C20C2F2000008B503683A
:100480002BB140F20003C0F2000303B1984708BD4E
:1004900080B483B000AF0346FB804EF20013CEF26F
:1004A0000003B7F906204FEA5212F98801F01F0144
:1004B0004FF0010000FA01F143F8221007F10C0798
:1004C000BD4680BC704700BF80B483B000AF034618
:1004D000FB804EF20013CEF20003B7F906204FEA7C
:1004E0005212F98801F01F014FF0010000FA01F1EA
:1004F00002F1600243F8221007F10C07BD4680BCF0
:10050000704700BF80B400AF46F20003C4F200039E
:1005100045F2FA52C4F66E421A61BD4680BC70477D
:10052000684620F007018D4681B583B000AF42F6E2
:100530000400C2F2000042F61C01C2F200014FF0BA
:100540000D0200F0A5FE0346DAB242F60C03C2F239
:1005500000031A7042F60C03C2F200031B780D2B45
:1005600019D14FF000037B6012E079687A6842F697
:100570001C03C2F200039B5C1A4602F00F0242F613
:100580001003C2F200035A547B6803F101037B603D
:100590007B680A2BE9DD4FF0000000F013FC4FF000
:1005A0002000FFF791FF07F10C07BD46BDE8814031
:1005B0008546704780B500AFFFF7A4FF00F0C8FF85
:1005C00000F09EFA4FF000004FF0420100F0CEFA2A
:1005D0004FF0000000F09CFB4FF02000FFF758FFA9
:1005E000FEE700BF80B483B000AF78604FF0FF3308
:1005F000184607F10C07BD4680BC704780B485B033
:1006000000AFF860B9607A6042F62C03C2F20003D2
:100610004FF00C021A604FF0FF33184607F1140731
:10062000BD4680BC704700BF80B483B000AF786027
:10063000FEE700BF80B400AF42F62C03C2F2000315
:100640004FF00B021A604FF0FF331846BD4680BCD6
:10065000704700BF80B483B000AF786039603B68FA
:100660004FF400525A604FF00003184607F10C0790
:10067000BD4680BC704700BF80B400AF4FF001039F
:100680001846BD4680BC704780B483B000AF786028
:100690004FF00103184607F10C07BD4680BC7047B8
:1006A00080B483B000AF7860396042F62C03C2F2A8
:1006B00000034FF016021A604FF0FF33184607F19F
:1006C0000C07BD4680BC704780B483B000AF786033
:1006D000396042F62C03C2F200034FF01F021A6089
:1006E0004FF0FF33184607F10C07BD4680BC70473A
:1006F00080B485B000AFF860B9607A604FF0000355
:10070000184607F11407BD4680BC704780B485B019
:1007100000AFF860B9607A604FF0FF33184607F118
:100720001407BD4680BC704780B485B000AFF86048
:10073000B9607A604FF00003184607F11407BD4610
:1007400080BC704780B584B000AF786042F2CC7353
:10075000C2F200031B68002B08D142F2CC73C2F234
:10076000000342F63002C2F200021A6042F2CC7379
:10077000C2F200031B68BB60EFF30883FB6042F228
:10078000CC73C2F200031A687B681A44FB689A4271
:100790000BD94FF0010042F26C11C2F200014FF090
:1007A000190201F0B7F800F041FF42F2CC73C2F237
:1007B00000031A687B681A4442F2CC73C2F2000349
:1007C0001A60BB68184607F11007BD4680BD00BF20
:1007D00080B483B000AF786039603B684FF400525A
:1007E0005A604FF00003184607F10C07BD4680BC65
:1007F000704700BF80B483B000AF78604FF0FF3324
:10080000184607F10C07BD4680BC704780B483B022
:1008100000AF786042F62C03C2F200034FF00202F0
:100820001A604FF0FF33184607F10C07BD4680BC35
:10083000704700BF80B483B000AF786042F62C03ED
:10084000C2F200034FF00A021A604FF0FF3318465D
:1008500007F10C07BD4680BC704700BF80B485B06F
:1008600000AFF860B9607A603B604FF00003184653
:1008700007F11407BD4680BC704700BF80B400AFCD
:10088000BD4680BC704700BF80B58AB000AF42F261
:100890008813C2F20003BC460FCB8CE80F0042F273
:1008A0000003CEF204039B6C4FEA930303F00303AF
:1008B0004FEA830307F12802134453F8283C3B61B5
:1008C00042F20003CEF204039B6C4FEA131303F0D1
:1008D00003034FEA830307F12802134453F8283C2B
:1008E0007B6142F20003CEF204039B6C4FEA931348
:1008F00003F003034FEA830307F12802134453F87C
:10090000283CBB6142F20003CEF20403DB6C4FEAE9
:10091000132303F01F033B6242F20003CEF20403F1
:10092000DB6C4FEA533303F001037B623B6A03F154
:100930000103FB617B6A002B03D0FB694FEA430391
:10094000FB6100F049F8024642F2AC23C2F2000318
:100950001A6042F2AC23C2F200031A683B69B2FB90
:10096000F3F242F2B023C2F200031A6042F2AC2367
:10097000C2F200031A687B69B2FBF3F242F2B423BD
:10098000C2F200031A6042F2AC23C2F200031A68FA
:10099000BB69B2FBF3F242F2B823C2F200031A6061
:1009A00042F2AC23C2F200031A68FB69B2FBF3F215
:1009B00042F2BC23C2F200031A6042F2AC23C2F23C
:1009C00000031A6842F2A823C2F200031A6007F17A
:1009D0002807BD4680BD00BF80B487B000AF4FF090
:1009E00000033B6040F61C03C6F208037B607B6893
:1009F0001A6844F24133C4F654439A4235D140F662
:100A00004003C6F20803BB60BB681B68FB60FB6861
:100A100023F07F43FB60FA6840F20033C0F2010329
:100A20009A4222D9FA684FF6FF73C0F201039A4244
:100A300008D841F22C63C6F208033B613B691B688E
:100A40003B6012E0FA684FF6FF73C0F202039A426D
:100A500008D841F6AC63C6F208037B617B691B686A
:100A60003B6002E04FF000033B603B68002B05D188
:100A700000BE47F64003C0F27D133B603B6818465A
:100A800007F11C07BD4680BC704700BF80B483B02F
:100A900000AF0346FB804EF20013CEF20003B7F91D
:100AA00006204FEA5212F98801F01F014FF00100B1
:100AB00000FA01F143F8221007F10C07BD4680BC93
:100AC000704700BF80B483B000AF0346FB804EF296
:100AD0000013CEF20003B7F906204FEA5212F9884C
:100AE00001F01F014FF0010000FA01F102F1600274
:100AF00043F8221007F10C07BD4680BC704700BFC9
:100B000080B582B000AF42F20003CEF2040342F29D
:100B10000002CEF20402126B42F480421A634FF0DC
:100B200000037B600EE07A6842F21823C2F20003F1
:100B300033F812301BB21846FFF7C4FF7B6803F18D
:100B400001037B607B681F2BEDD942F20003CEF2DC
:100B5000040342F20002CEF20402126B22F480423D
:100B60001A6307F10807BD4680BD00BF80B485B099
:100B700000AF03463960FB71FB79FB60FB681F2BFC
:100B800000D900BEFB681F2B08D8FA6842F2981300
:100B9000C2F2000353F822303A681A6007F11407D2
:100BA000BD4680BC704700BF80B485B000AF024630
:100BB0000B46FA71BB71FB79FB60FB681F2B00D9F8
:100BC00000BEFB681F2B09D840F20003C4F22623A5
:100BD000FA68B97902F5886243F8221007F1140720
:100BE000BD4680BC704700BF80B487B000AF0246EE
:100BF0000B46FA71BB71FB797B617B691F2B00D9B6
:100C000000BE7B691F2B7DD8BB79012B04D0022B42
:100C100060D0002B2ED074E043F20003C4F2010335
:100C2000D3F88830FB607B694FF0010202FA03F3CE
:100C3000FA6842EA0303FB6043F20003C4F20103D3
:100C4000FA68C3F888207A6942F29813C2F2000366
:100C500053F822301B683B613B6943F004033B615E
:100C60007A6942F29813C2F2000353F822303A69CB
:100C70001A6047E043F20003C4F20103D3F888305E
:100C8000FB607B694FF0010202FA03F36FEA030392
:100C9000FA6802EA0303FB6043F20003C4F20103B3
:100CA000FA68C3F888207A6942F29813C2F2000306
:100CB00053F822301B683B613B6943F004033B61FE
:100CC0007A6942F29813C2F2000353F822303A696B
:100CD0001A6017E07A6942F29813C2F2000353F8DF
:100CE00022301B683B613B6923F004033B617A6956
:100CF00042F29813C2F2000353F822303A691A60A4
:100D000000E000BE07F11C07BD4680BC704700BF75
:100D100080B584B000AF0346FB71FB79FB60FB68D4
:100D20001F2B00D900BEFB681F2B1ED8FA6842F2A9
:100D30009813C2F2000353F822301B68BB60FA68B4
:100D400042F29813C2F2000353F82230BA6842F01C
:100D500008021A60FA6842F21823C2F2000333F85C
:100D600012301BB21846FFF791FE07F11007BD467F
:100D700080BD00BF80B485B000AF0346FB71FB7936
:100D8000FB60FB681F2B00D900BEFB681F2B13D82C
:100D9000FA6842F29813C2F2000353F822301B683B
:100DA000BB60FA6842F29813C2F2000353F8223093
:100DB000BA6822F008021A6007F11407BD4680BC29
:100DC000704700BF80B584B000AF0346FB71FB796C
:100DD000FB60FB681F2B00D900BEFB681F2B15D8DA
:100DE00043F20003C4F20103FA684FF0010101FA73
:100DF00002F2C3F88020FA6842F21823C2F200031C
:100E000033F812301BB21846FFF75CFE07F11007EB
:100E1000BD4680BD80B5AAB000AFF860B960FA8069
:100E20007B71FB68002B17D142F25823C2F20003FA
:100E300007F1880C9E46BEE80F00ACE80F009EE864
:100E40000700ACE80300ACF8002007F1880318465F
:100E50004FF0300100F08EFB7B79072B17D942F25F
:100E60005823C2F2000307F16C0C9E46BEE80F0047
:100E7000ACE80F009EE80700ACE80300ACF80020E7
:100E800007F16C0318464FF0310100F073FBFA884C
:100E900041F6FF739A4217D942F25823C2F2000377
:100EA00007F1500C9E46BEE80F00ACE80F009EE82C
:100EB0000700ACE80300ACF8002007F15003184627
:100EC0004FF0320100F056FBFB68002B00F0B580BC
:100ED0007B79072B00F2B180FA8841F6FF739A42C2
:100EE00000F2AB80BB6803F10802FB8803F0FF034C
:100EF0001046194600F082FBBB6803F10C027979B9
:100F0000FB8803F47F434FEA631341EA030310466F
:100F1000194600F073FBFB68BA681A60FB681B682F
:100F200003F10803184600F06BFB0346A7F8A63050
:100F3000FB681B6803F10C03184600F061FB0346D5
:100F400087F8A43097F8A43023F0070387F8A5307A
:100F500097F8A5304FEA43139AB2B7F8A63042EAA1
:100F60000303A7F8A63097F8A43003F0070387F827
:100F7000A430B7F8A620FB889A4217D042F2582333
:100F8000C2F2000307F1340C9E46BEE80F00ACE845
:100F90000F009EE80700ACE80300ACF8002007F162
:100FA000340318464FF0540100F0E4FA97F8A420F7
:100FB0007B799A4217D042F25823C2F2000307F11C
:100FC000180C9E46BEE80F00ACE80F009EE8070034
:100FD000ACE80300ACF8002007F1180318464FF006
:100FE000550100F0C7FAFB681B6803F110031846AF
:100FF00000F006FB034603F0020387F8A33014E079
:10100000FB681B6803F10403184600F0F9FA034675
:10101000FB75FB681B6803F11003184600F0F0FA3B
:10102000034603F0020387F8A33097F8A330002BA0
:10103000E6D1FB684FF000021A7107F1A807BD4620
:1010400080BD00BF80B59CB000AFF860B9607A6029
:10105000FB68002B17D142F25823C2F2000307F1BC
:101060004C0C9E46BEE80F00ACE80F009EE807005F
:10107000ACE80300ACF8002007F14C0318464FF031
:101080007D0100F077FABB68002B17D142F258239C
:10109000C2F2000307F1300C9E46BEE80F00ACE838
:1010A0000F009EE80700ACE80300ACF8002007F151
:1010B000300318464FF07E0100F05CFA7B68002B8D
:1010C00017D142F25823C2F2000307F1140C9E46D6
:1010D000BEE80F00ACE80F009EE80700ACE8030094
:1010E000ACF8002007F1140318464FF07F0100F020
:1010F00041FAFB68002B2BD0BB68002B28D07B6803
:10110000002B25D04FF00003BB661DE0FB681B6879
:1011100003F11003184600F073FA034603F00103CD
:1011200087F86F3097F86F30002BEFD0FB681A68A4
:10113000B968BB6E0B441B781046194600F05EFA86
:10114000BB6E03F10103BB66BA6E7B689A42DDD3C6
:1011500007F17007BD4680BD80B59AB000AFF8605A
:10116000B9607A604FF000037B66FB68002B17D1F3
:1011700042F25823C2F2000307F1480C9E46BEE833
:101180000F00ACE80F009EE80700ACE80300ACF8E5
:10119000002007F1480318464FF0A20100F0EAF9D9
:1011A000BB68002B17D142F25823C2F2000307F1AB
:1011B0002C0C9E46BEE80F00ACE80F009EE807002E
:1011C000ACE80300ACF8002007F12C0318464FF000
:1011D000A30100F0CFF97B68002B17D142F258230E
:1011E000C2F2000307F1100C9E46BEE80F00ACE807
:1011F0000F009EE80700ACE80300ACF8002007F100
:10120000100318464FF0A40100F0B4F9FB68002B5E
:1012100037D0BB68002B34D07B68002B31D0FB6803
:101220001B6803F11003184600F0EAF9034603F0C7
:10123000010387F8633097F86330002B21D0FB68F7
:101240001A68B9687B6E0B441B781046194600F08B
:10125000D5F97B6E03F101037B66FB681B6803F124
:101260001003184600F0CCF9034603F0010387F899
:10127000633097F86330002B03D07A6E7B689A4214
:10128000DDD37B6E184607F16807BD4680BD00BF01
:1012900090B59BB000AFF860B9607A604FF0000382
:1012A0007B66FB68002B17D142F25823C2F2000381
:1012B00007F1480C9E46BEE80F00ACE80F009EE820
:1012C0000700ACE80300ACF8002007F1480318461B
:1012D0004FF0CC0100F04EF9BB68002B17D142F261
:1012E0005823C2F2000307F12C0C9E46BEE80F0003
:1012F000ACE80F009EE80700ACE80300ACF8002063
:1013000007F12C0318464FF0CD0100F033F97B684C
:10131000002B17D142F25823C2F2000307F1100C40
:101320009E46BEE80F00ACE80F009EE80700ACE860
:101330000300ACF8002007F1100318464FF0CE016F
:1013400000F018F9FB68002B54D0BB68002B51D07B
:101350007B68002B4ED04FF000037B66FB681B6858
:1013600003F11003184600F04BF9034687F862308A
:10137000FB681A7997F8623042EA0303DAB2FB6835
:101380001A7197F8623003F0020387F8633029E09E
:10139000BA687B6E02EB0304FB681B6803F104036D
:1013A000184600F02DF9034623707B6E03F101030C
:1013B0007B66FB681B6803F11003184600F020F9F8
:1013C000034687F86230FB681A7997F8623042EA80
:1013D0000303DAB2FB681A7197F8623003F0020374
:1013E00087F8633097F86330002B03D07A6E7B6800
:1013F0009A42CDD37B6E184607F16C07BD4690BD6F
:1014000080B592B000AF786039607B68002B17D14F
:1014100042F25823C2F2000307F1240C9E46BEE8B4
:101420000F00ACE80F009EE80700ACE80300ACF842
:10143000002007F1240318464FF0F30100F09AF85A
:101440003B68002B17D142F25823C2F2000307F188
:10145000080C9E46BEE80F00ACE80F009EE80700AF
:10146000ACE80300ACF8002007F1080318464FF081
:10147000F40100F07FF87B68002B2AD03B68002B3A
:1014800027D04FF000033B641DE07B681B6803F12D
:101490001003184600F0B4F8034603F0010387F880
:1014A000473097F84730002BEFD07B681A683968CF
:1014B0003B6C0B441B781046194600F09FF83B6CC0
:1014C00003F101033B643A683B6C13441B78002B27
:1014D000DBD107F14807BD4680BD00BF80B58AB0AB
:1014E00000AF78604FF0FF3387F827307B68002B20
:1014F00017D142F25823C2F2000307F10C0C9E46AA
:10150000BEE80F00ACE80F009EE80700ACE803005F
:10151000ACF8002007F10C0318464FF48A7100F074
:1015200029F87B68002B0BD07B681B7903F01C0328
:101530004FEAA30387F827307B684FF000021A7147
:1015400097F82730184607F12807BD4680BD00BF31
:1015500080B500AF42F60400C2F2000040F2002164
:10156000C4F2050140F28A224FF00103FFF752FC5A
:1015700080BD00BF80B487B000AF786039607B6801
:101580007B613B683B617B691B78DBB2FB733B692A
:10159000BB60BB6803F10103BB60F0E7016070470B
:1015A000006870470EB503FA01F303EA020301680D
:1015B0006FEA020201EA020141EA030101600EBD85
:1015C000006800EA020020FA01F0704701807047CD
:1015D000008870470EB503FA01F303EA020301889D
:1015E0006FEA020201EA020141EA030101800EBD35
:1015F000008800EA020020FA01F07047017070478D
:10160000007870470EB503FA01F303EA020301788C
:101610006FEA020201EA020141EA030101700EBD14
:10162000007800EA020020FA01F0704708B50620B1
:1016300000F0DEF80120FEF7F7FF00BF70B542F2C0
:10164000942642F29425C2F20006C2F20005761BEF
:10165000B61006D0002455F8243001349847A6422D
:10166000F9D842F2942542F29826C2F20005C2F25D
:101670000006761B00F002FEB61006D0002455F8D6
:10168000243001349847A642F9D870BD70B504469D
:1016900088B104F1480253685D1E07D4023302EB9F
:1016A000830656F8043D9847013DFAD5A36A0BB16D
:1016B0002046984770BD42F2C023C2F200031C6866
:1016C000E7E700BF70B50C460968054609B1FFF7AA
:1016D000F9FF28462146BDE8704000F07DB900BF03
:1016E00042F2C023C2F2000370B51B68054698425F
:1016F00046D0436A1946BBB1DA68AAB100269159AF
:1017000041B10C68284600F067F92146002CF8D159
:101710006B6ADA6804363C2E01D0DA68EFE71146CE
:10172000284600F059F9696A096811B1284600F0A5
:1017300053F9696911B1284600F04EF9696A11B18F
:10174000284600F049F9A96B11B1284600F044F988
:10175000E96B11B1284600F03FF9296C11B1284618
:1017600000F03AF9AB6CD3F8881011B1284600F0BC
:1017700033F9696B11B1284600F02EF9AB6903B952
:1017800070BDAB6A28469847D5F8D8100029F7D025
:101790002846BDE8704095E71F2970B50C46054600
:1017A00020D8426CA2B152F821308BB1012B0DD060
:1017B000B3F1FF3F06D00846002542F82150984774
:1017C000284670BD16230360012070BD002070BD47
:1017D000284600F087F8224601462846BDE87040BA
:1017E00000F082B8162303604FF0FF3070BD00BFD9
:1017F00042F2C0230146C2F200031868CCE700BFE2
:1018000038B5456C04460DB1002038BD802100F08C
:10181000C3F9606428B12B4643510435802DFBD1B8
:10182000F2E7013838BD00BF42F2C023C2F2000324
:101830001868E5E71F2910B5044682B012D8426C3B
:10184000CAB152F8213002EB810283B1B3F1FF3FFC
:101850000FD0012B09D00846002414609847204679
:1018600002B010BD4FF0FF30FAE70320F8E7012087
:10187000F6E70220F4E70191FFF7C2FF0199002883
:10188000F0D1626CDDE700BF42F2C0230146C2F234
:1018900000031868CEE700BF1F2910B5044682B0C8
:1018A00007D8436C53B153F8210043F8212002B00C
:1018B00010BD162303604FF0FF30F8E7019100924E
:1018C000FFF79EFF0199009A08B9636CEBE74FF0B0
:1018D000FF30ECE742F2C0230A46C2F200030146A1
:1018E0001868D9E7FEF7C8BE38B542F62C04C2F234
:1018F000000405460846114600232360FEF7D0FE8B
:10190000B0F1FF3F00D038BD2368002BFBD02B6027
:1019100038BD00BF10B442F2C024C2F200048C46AD
:10192000134601466246206810BCFEF797BF00BF11
:10193000F8B542F2B434C2F200040F46054600F096
:10194000FDFBA3685E6826F0030606F57E630F3391
:10195000DF1B3F0B013F3F03B7F5805F07DB002133
:10196000284600F0EFFBA368F318834204D0284612
:1019700000F0E6FB0020F8BD7942284600F0E2FBCB
:10198000B0F1FF3F10D0A26842F2D473C2F200035C
:10199000F61B46F00106284656601A68D71B1F60E2
:1019A00000F0CEFB0120F8BD0021284600F0CAFB64
:1019B000A368C21A0F2ADADD42F2BC7442F2D47173
:1019C000C2F20004C2F2000142F001022468001BCE
:1019D00008605A60CBE700BF2DE9F04105460C4690
:1019E000002900F0888000F0A9FBA4F1080242F26F
:1019F000B4305668C2F2000026F00103D0F808C0E7
:101A0000D1188C454F6827F0030700F0958016F039
:101A100001064F605FD00026CC19646814F0010FF6
:101A200006D1DB19002E7AD08C68C9688C60E16021
:101A300043F00101D3505160002E47D1B3F5007F30
:101A40005BD3590A04299EBF4FEA931C0CF1380C52
:101A50004FEACC0428D914299CBF01F15B0C4FEA52
:101A6000CC0421D954299EBF4FEA133C0CF16E0CD3
:101A70004FEACC0418D9B1F5AA7F9EBF4FEAD33CF8
:101A80000CF1770C4FEACC040ED940F2545C61455E
:101A900095BF4FEA934C4FF47C740CF17C0C4FF0E3
:101AA0007E0C98BF4FEACC040419A168A14203D16F
:101AB00064E089688C4204D0486820F003008342C7
:101AC000F7D3CB68D3609160CA609A602846BDE8BE
:101AD000F04100F035BB54F8084C00F1080C121B23
:101AE0001B199468644547D0D2F80CC0CCF8084064
:101AF000C4F80CC090E7BDE8F081DB084FF0010CA2
:101B0000466800EBC3019B100CFA03F3D1608C68AC
:101B100046EA030343609460E2608A60D6E78C681B
:101B20001C4FBC4281D1D35043F00103E260A2605C
:101B300053609460D460C9E7FB1816F0010F07D119
:101B400054F8081C521A5B18D4689168A160CC60E4
:101B500042F2C0718260C2F2000143F001005060A5
:101B60000A689342B2D342F2D0732846C2F200030D
:101B70001968FFF7DDFEA9E701264DE70126446855
:101B80004FEAAC0C0B4606FA0CFC44EA0C04446029
:101B900098E700BFBC2300202DE9F04F01F10B04B2
:101BA000162C83B006462FD8002310248C422CBF5D
:101BB000194643F00101002930D1304600F0BEFA49
:101BC000B4F5FC7F2ED24FEAD40E42F2B435C2F205
:101BD000000505EBCE02D368934200F006825A68F6
:101BE00003F10805D968304622F0030C9A68634473
:101BF0005C688A6044F00104D1605C6000F0A0FA87
:101C0000284603B0BDE8F08F24F00704E30F8C42B0
:101C10002CBF194643F001010029CED00C2300252A
:101C20003360EDE75FEA542E04BF4FEAD40E4FEA6B
:101C3000CE0040F0908042F2B435C2F20005281880
:101C4000C368984206D10DE0002A80F26F81DB68FC
:101C5000984207D0596821F003010A1B0F2AF3DDCF
:101C60000EF1FF3E0EF1010E42F2B437C2F2000750
:101C700007F108018B68994208BF7A6826D05A6834
:101C800022F0030CC4EB0C020F2A00F39481002A0B
:101C9000C960896080F29980BCF5007F80F0658121
:101CA0004FEADC0C4FF0010A7A6807EBCC004FEAF0
:101CB000AC0C0AFA0CFCD860D0F808804CEA02029E
:101CC0007A60C3F80880C8F80C3083604FF0010CCC
:101CD0004FEAAE030CFA03FC944500F2828012EA4C
:101CE0000C0F08D12EF0030E4FEA4C0C0EF1040E2F
:101CF00012EA0C0FF8D007EBCE09F246C846D8F826
:101D00000C30984507D168E1002A80F27881DB68C1
:101D1000984500F06281586820F00300021B0F2AEA
:101D2000F2DD1D461F19D3F80CC044F0010E55F822
:101D3000084F3046BA5042F00102C3F804E0CCF834
:101D40000840C4F80CC08F60CF607A60B960F96059
:101D500000F0F6F954E7BEF1040F9EBF4FEA941E5F
:101D60000EF1380E4FEACE007FF665AFBEF1140FCC
:101D70009CBF0EF15B0E4FEACE007FF65CAFBEF16A
:101D8000540F9EBF4FEA143E0EF16E0E4FEACE0086
:101D90007FF651AFBEF5AA7F9EBF4FEAD43E0EF14B
:101DA000770E4FEACE007FF646AF40F254539E4581
:101DB00095BF4FEA944E4FF47C700EF17C0E4FF0BD
:101DC0007E0E98BF4FEACE0035E703EB0C0203F11D
:101DD00008053046536843F00103536000F0B0F942
:101DE0000EE7D7F80880D8F8043023F00309C4EBD5
:101DF00009024C4594BF002301230F2AD8BF43F0AA
:101E00000103002B00F0A18042F2D07BD5F808241A
:101E1000C2F2000BDBF8003010331B19B2F1FF3FA8
:101E200006D003F57E631F3323F47E6323F01F0384
:101E300019463046019300F085F9019BB0F1FF3F50
:101E4000824600F0F48008EB0901814200F2EC8048
:101E5000DBF804209A185145CBF8042000F04581A6
:101E6000D5F8085442F2B430C2F20000B5F1FF3F99
:101E700008BFC0F808A403D05244511ACBF804108C
:101E80001AF00705304617BFC5F108054FF4805515
:101E9000AA4405F5805553441B051B0DED1A294630
:101EA00000F050F9B0F1FF3F00F02C81CAEB0001C7
:101EB000491941F00101DBF8042042F2D073C7F860
:101EC00008A0C2F20003AA18B845CBF80420CAF84B
:101ED000041017D0B9F10F0F40F2DF80A9F10C0107
:101EE000052521F0070108EB01000F2985604560F9
:101EF000D8F8040000F0010041EA0000C8F804002E
:101F000000F2AC80D04642F2D073DBF82C10C2F263
:101F100000038A42DBF8301088BFDA6242F2D073E5
:101F2000C2F200038A4288BF1A6382E05C189A6892
:101F3000D9683046666803F108058A6046F00103F7
:101F4000D160636000F0FCF85AE608EB040342F04D
:101F5000010244F001043046C8F8044008F10805C5
:101F60005A60BB6000F0ECF84AE64FEA5C22042AB3
:101F700054D9142A00F289805B324FEAC208A8447F
:101F800042F2B437C2F20007D8F80800404503D146
:101F90006FE08068804504D0426822F003029445D7
:101FA000F7D3D0F80CC0C3F80CC098607A68C3604F
:101FB000CCF808308AE61F19304644F00104CF609F
:101FC0005C6003F10805BA5042F001028F607A604C
:101FD000B960F96000F0B4F812E60AF1010A1AF0EB
:101FE000030F5FD003F1080889E603F10802D36804
:101FF0009A4208BF0EF1020E3FF436AEEFE51D46E1
:102000001918DA68304655F8083F4C68936044F078
:102010000104DA604C6000F093F8F1E54FEA9C129D
:1020200038324FEAC208AAE7B8453FF411AFD7F8F3
:102030000880D8F8042022F00302944294BF0023C1
:102040000123121B0F2AD8BF43F00103002B3FF4DA
:102050007CAF3046002500F073F8D1E508F10801A7
:1020600030460193FFF7B8FC019BD7F808805A6807
:1020700049E74FF0010AD7F80480921084460AFA23
:1020800002F248EA02027A608DE7542A24D84FEA25
:102090001C326E324FEAC20871E70123D046CAF8FB
:1020A0000430C6E74A461EF0030F13460EF1FF3E0A
:1020B00033D053F808299A42F5D07B684FEA4C0C8C
:1020C0009C453FF68EAEBCF1000F3FF48AAE1CEA91
:1020D000030F27D0D6460EE6B2F5AA7F15D84FEAF1
:1020E000DC3277324FEAC20849E70805000D0028C4
:1020F0007FF4B6AED7F808804B4443F00103C8F82C
:10210000043000E701210025D5E640F25450824218
:102110000DD94FF47C787E2231E77B6823EA0C03EB
:102120007B60CBE74FEA4C0C0AF1040ACFE74FEA99
:102130009C427C324FEAC20821E700BF704700BFD3
:10214000704700BF38B542F62C04C2F200040546C1
:10215000084600232360FEF7F5FAB0F1FF3F00D0F8
:1021600038BD2368002BFBD02B6038BD48656170FB
:1021700020616E6420737461636B20636F6C6C69A3
:1021800073696F6E0A000000010000000200000089
:102190000400000001000000003001400430014054
:1021A000083001400C300140103001401430014033
:1021B000183001401C3001402030014024300140E3
:1021C000283001402C300140303001403430014093
:1021D000383001403C300140403001404430014043
:1021E000483001404C3001405030014054300140F3
:1021F000583001405C3001406030014064300140A3
:10220000683001406C300140703001407430014052
:10221000783001407C300140200021002200230062
:102220002400250026002700280029002A002B0072
:102230002C002D002E002F00300031003200330022
:102240003400350036003700380039003A003B00D2
:102250003C003D003E003F002E2E2F6472697665E3
:10226000722F636F72655F756172745F6170622E49
:1022700063000000C422002043000000F8B500BF46
:10228000F8BC08BC9E467047F8B500BFF8BC08BC57
:0C2290009E467047750400206104002089
:10229C000000000000000000C827002040787D01ED
:1022AC0040787D01105E5F00105E5F00105E5F0085
:1022BC00105E5F00C422002000000000000000003F
:1022CC000000000000000000000000000000000002
:1022DC000000000000000000782200200000000038
:1022EC0000000000000000000000000000000000E2
:1022FC0000000000000000000000000000000000D2
:10230C0000000000000000000000000000000000C1
:10231C0000000000000000000000000000000000B1
:10232C0000000000000000000000000000000000A1
:10233C000000000000000000000000000000000091
:10234C000000000000000000000000000000000081
:10235C000000000000000000000000000000000071
:10236C000000000000000000000000000000000061
:10237C000000000000000000000000000000000051
:10238C000000000000000000000000000000000041
:10239C000000000000000000000000000000000031
:1023AC000000000000000000000000000000000021
:1023BC00B4230020B4230020BC230020BC23002025
:1023CC00C4230020C4230020CC230020CC230020D5
:1023DC00D4230020D4230020DC230020DC23002085
:1023EC00E4230020E4230020EC230020EC23002035
:1023FC00F4230020F4230020FC230020FC230020E5
:10240C0004240020042400200C2400200C24002090
:10241C0014240020142400201C2400201C24002040
:10242C0024240020242400202C2400202C240020F0
:10243C0034240020342400203C2400203C240020A0
:10244C0044240020442400204C2400204C24002050
:10245C0054240020542400205C2400205C24002000
:10246C0064240020642400206C2400206C240020B0
:10247C0074240020742400207C2400207C24002060
:10248C0084240020842400208C2400208C24002010
:10249C0094240020942400209C2400209C240020C0
:1024AC00A4240020A4240020AC240020AC24002070
:1024BC00B4240020B4240020BC240020BC24002020
:1024CC00C4240020C4240020CC240020CC240020D0
:1024DC00D4240020D4240020DC240020DC24002080
:1024EC00E4240020E4240020EC240020EC24002030
:1024FC00F4240020F4240020FC240020FC240020E0
:10250C0004250020042500200C2500200C2500208B
:10251C0014250020142500201C2500201C2500203B
:10252C0024250020242500202C2500202C250020EB
:10253C0034250020342500203C2500203C2500209B
:10254C0044250020442500204C2500204C2500204B
:10255C0054250020542500205C2500205C250020FB
:10256C0064250020642500206C2500206C250020AB
:10257C0074250020742500207C2500207C2500205B
:10258C0084250020842500208C2500208C2500200B
:10259C0094250020942500209C2500209C250020BB
:1025AC00A4250020A4250020AC250020AC2500206B
:1025BC00B4250020B4250020BC250020BC2500201B
:1025CC00C4250020C4250020CC250020CC250020CB
:1025DC00D4250020D4250020DC250020DC2500207B
:1025EC00E4250020E4250020EC250020EC2500202B
:1025FC00F4250020F4250020FC250020FC250020DB
:10260C0004260020042600200C2600200C26002086
:10261C0014260020142600201C2600201C26002036
:10262C0024260020242600202C2600202C260020E6
:10263C0034260020342600203C2600203C26002096
:10264C0044260020442600204C2600204C26002046
:10265C0054260020542600205C2600205C260020F6
:10266C0064260020642600206C2600206C260020A6
:10267C0074260020742600207C2600207C26002056
:10268C0084260020842600208C2600208C26002006
:10269C0094260020942600209C2600209C260020B6
:1026AC00A4260020A4260020AC260020AC26002066
:1026BC00B4260020B4260020BC260020BC26002016
:1026CC00C4260020C4260020CC260020CC260020C6
:1026DC00D4260020D4260020DC260020DC26002076
:1026EC00E4260020E4260020EC260020EC26002026
:1026FC00F4260020F4260020FC260020FC260020D6
:10270C0004270020042700200C2700200C27002081
:10271C0014270020142700201C2700201C27002031
:10272C0024270020242700202C2700202C270020E1
:10273C0034270020342700203C2700203C27002091
:10274C0044270020442700204C2700204C27002041
:10275C0054270020542700205C2700205C270020F1
:10276C0064270020642700206C2700206C270020A1
:10277C0074270020742700207C2700207C27002051
:10278C0084270020842700208C2700208C27002001
:10279C0094270020942700209C2700209C270020B1
:1027AC00A4270020A4270020AC270020AC27002061
:0827BC00FFFFFFFF0000020017
:04000005200002993C
:00000001FF
